{
  "_format": "hh-sol-artifact-1",
  "contractName": "PriceFinder",
  "sourceName": "contracts/PriceFinder.sol",
  "abi": [
    {
      "inputs": [],
      "stateMutability": "nonpayable",
      "type": "constructor"
    },
    {
      "anonymous": false,
      "inputs": [
        {
          "indexed": true,
          "internalType": "uint256",
          "name": "requestId",
          "type": "uint256"
        }
      ],
      "name": "AcceptOffer",
      "type": "event"
    },
    {
      "anonymous": false,
      "inputs": [
        {
          "indexed": true,
          "internalType": "address",
          "name": "sender",
          "type": "address"
        },
        {
          "indexed": false,
          "internalType": "uint256",
          "name": "amount",
          "type": "uint256"
        }
      ],
      "name": "DeStakeSpecialist",
      "type": "event"
    },
    {
      "anonymous": false,
      "inputs": [
        {
          "indexed": true,
          "internalType": "uint256",
          "name": "requestId",
          "type": "uint256"
        },
        {
          "indexed": true,
          "internalType": "address",
          "name": "specialist",
          "type": "address"
        },
        {
          "indexed": false,
          "internalType": "uint256",
          "name": "value",
          "type": "uint256"
        }
      ],
      "name": "PricedAsset",
      "type": "event"
    },
    {
      "anonymous": false,
      "inputs": [
        {
          "indexed": true,
          "internalType": "uint256",
          "name": "requestId",
          "type": "uint256"
        }
      ],
      "name": "RequestDropped",
      "type": "event"
    },
    {
      "anonymous": false,
      "inputs": [
        {
          "indexed": true,
          "internalType": "address",
          "name": "applicant",
          "type": "address"
        },
        {
          "indexed": false,
          "internalType": "address",
          "name": "collection",
          "type": "address"
        },
        {
          "indexed": false,
          "internalType": "uint256",
          "name": "tokenId",
          "type": "uint256"
        },
        {
          "indexed": true,
          "internalType": "uint256",
          "name": "requestId",
          "type": "uint256"
        }
      ],
      "name": "RequestPrice",
      "type": "event"
    },
    {
      "anonymous": false,
      "inputs": [
        {
          "indexed": true,
          "internalType": "address",
          "name": "sender",
          "type": "address"
        },
        {
          "indexed": false,
          "internalType": "uint256",
          "name": "amount",
          "type": "uint256"
        }
      ],
      "name": "StakeSpecialist",
      "type": "event"
    },
    {
      "inputs": [],
      "name": "ABK",
      "outputs": [
        {
          "internalType": "contract ABKoin",
          "name": "",
          "type": "address"
        }
      ],
      "stateMutability": "view",
      "type": "function"
    },
    {
      "inputs": [],
      "name": "REPUTATION_MUL",
      "outputs": [
        {
          "internalType": "uint256",
          "name": "",
          "type": "uint256"
        }
      ],
      "stateMutability": "view",
      "type": "function"
    },
    {
      "inputs": [],
      "name": "SPECIALIST_FEE",
      "outputs": [
        {
          "internalType": "uint256",
          "name": "",
          "type": "uint256"
        }
      ],
      "stateMutability": "view",
      "type": "function"
    },
    {
      "inputs": [],
      "name": "SPECIALIST_FEE_DENOMINATOR",
      "outputs": [
        {
          "internalType": "uint256",
          "name": "",
          "type": "uint256"
        }
      ],
      "stateMutability": "view",
      "type": "function"
    },
    {
      "inputs": [],
      "name": "WAIT_PERIOD",
      "outputs": [
        {
          "internalType": "uint256",
          "name": "",
          "type": "uint256"
        }
      ],
      "stateMutability": "view",
      "type": "function"
    },
    {
      "inputs": [
        {
          "internalType": "uint256",
          "name": "_requestId",
          "type": "uint256"
        }
      ],
      "name": "acceptOffer",
      "outputs": [],
      "stateMutability": "nonpayable",
      "type": "function"
    },
    {
      "inputs": [],
      "name": "auctionHouse",
      "outputs": [
        {
          "internalType": "contract AuctionHouse",
          "name": "",
          "type": "address"
        }
      ],
      "stateMutability": "view",
      "type": "function"
    },
    {
      "inputs": [
        {
          "internalType": "uint256",
          "name": "_requestId",
          "type": "uint256"
        }
      ],
      "name": "calculateAssetOffer",
      "outputs": [
        {
          "internalType": "uint256",
          "name": "",
          "type": "uint256"
        }
      ],
      "stateMutability": "view",
      "type": "function"
    },
    {
      "inputs": [
        {
          "internalType": "address",
          "name": "_specialist",
          "type": "address"
        }
      ],
      "name": "calculateMaxDestaking",
      "outputs": [
        {
          "internalType": "uint256",
          "name": "",
          "type": "uint256"
        }
      ],
      "stateMutability": "view",
      "type": "function"
    },
    {
      "inputs": [
        {
          "internalType": "uint256",
          "name": "_requestId",
          "type": "uint256"
        }
      ],
      "name": "calculateSpecialistsRewards",
      "outputs": [
        {
          "components": [
            {
              "internalType": "uint256",
              "name": "amount",
              "type": "uint256"
            },
            {
              "internalType": "address",
              "name": "specialist",
              "type": "address"
            }
          ],
          "internalType": "struct PriceFinder.SepcialistReward[]",
          "name": "",
          "type": "tuple[]"
        }
      ],
      "stateMutability": "view",
      "type": "function"
    },
    {
      "inputs": [
        {
          "internalType": "uint256",
          "name": "amount",
          "type": "uint256"
        }
      ],
      "name": "destakeABK",
      "outputs": [],
      "stateMutability": "nonpayable",
      "type": "function"
    },
    {
      "inputs": [
        {
          "internalType": "uint256",
          "name": "_requestId",
          "type": "uint256"
        }
      ],
      "name": "dropRequest",
      "outputs": [],
      "stateMutability": "nonpayable",
      "type": "function"
    },
    {
      "inputs": [
        {
          "internalType": "uint256",
          "name": "_requestId",
          "type": "uint256"
        },
        {
          "internalType": "uint256",
          "name": "_finalPrice",
          "type": "uint256"
        },
        {
          "internalType": "address",
          "name": "_buyer",
          "type": "address"
        }
      ],
      "name": "finalizeRequest",
      "outputs": [],
      "stateMutability": "nonpayable",
      "type": "function"
    },
    {
      "inputs": [
        {
          "internalType": "uint256",
          "name": "_requestId",
          "type": "uint256"
        }
      ],
      "name": "getAssetOffers",
      "outputs": [
        {
          "components": [
            {
              "internalType": "uint256",
              "name": "value",
              "type": "uint256"
            },
            {
              "internalType": "address",
              "name": "specialist",
              "type": "address"
            }
          ],
          "internalType": "struct PriceFinder.Offer[]",
          "name": "offers",
          "type": "tuple[]"
        }
      ],
      "stateMutability": "view",
      "type": "function"
    },
    {
      "inputs": [
        {
          "internalType": "uint256",
          "name": "_requestId",
          "type": "uint256"
        }
      ],
      "name": "getRequest",
      "outputs": [
        {
          "components": [
            {
              "internalType": "address",
              "name": "applicant",
              "type": "address"
            },
            {
              "internalType": "address",
              "name": "collection",
              "type": "address"
            },
            {
              "internalType": "uint256",
              "name": "tokenId",
              "type": "uint256"
            },
            {
              "internalType": "enum PriceFinder.RequestStatus",
              "name": "status",
              "type": "uint8"
            },
            {
              "internalType": "uint256",
              "name": "createdAt",
              "type": "uint256"
            }
          ],
          "internalType": "struct PriceFinder.Request",
          "name": "",
          "type": "tuple"
        }
      ],
      "stateMutability": "view",
      "type": "function"
    },
    {
      "inputs": [],
      "name": "getRequestsLength",
      "outputs": [
        {
          "internalType": "uint256",
          "name": "",
          "type": "uint256"
        }
      ],
      "stateMutability": "view",
      "type": "function"
    },
    {
      "inputs": [
        {
          "internalType": "address",
          "name": "_specialist",
          "type": "address"
        }
      ],
      "name": "getSpecialist",
      "outputs": [
        {
          "components": [
            {
              "internalType": "uint256",
              "name": "reputation",
              "type": "uint256"
            },
            {
              "internalType": "uint256",
              "name": "stakes",
              "type": "uint256"
            },
            {
              "internalType": "uint256",
              "name": "lockedWeight",
              "type": "uint256"
            }
          ],
          "internalType": "struct PriceFinder.Specialist",
          "name": "",
          "type": "tuple"
        }
      ],
      "stateMutability": "view",
      "type": "function"
    },
    {
      "inputs": [
        {
          "internalType": "address",
          "name": "_specialist",
          "type": "address"
        }
      ],
      "name": "getSpecialistFreeWeight",
      "outputs": [
        {
          "internalType": "uint256",
          "name": "",
          "type": "uint256"
        }
      ],
      "stateMutability": "view",
      "type": "function"
    },
    {
      "inputs": [
        {
          "internalType": "address",
          "name": "_ABKAddress",
          "type": "address"
        },
        {
          "internalType": "address",
          "name": "_auctionHouseAddress",
          "type": "address"
        }
      ],
      "name": "initialize",
      "outputs": [],
      "stateMutability": "nonpayable",
      "type": "function"
    },
    {
      "inputs": [
        {
          "internalType": "uint256",
          "name": "_requestId",
          "type": "uint256"
        },
        {
          "internalType": "uint256",
          "name": "_suggestedPrice",
          "type": "uint256"
        }
      ],
      "name": "priceAsset",
      "outputs": [],
      "stateMutability": "nonpayable",
      "type": "function"
    },
    {
      "inputs": [
        {
          "internalType": "uint256",
          "name": "",
          "type": "uint256"
        },
        {
          "internalType": "uint256",
          "name": "",
          "type": "uint256"
        }
      ],
      "name": "requestOffers",
      "outputs": [
        {
          "internalType": "uint256",
          "name": "value",
          "type": "uint256"
        },
        {
          "internalType": "address",
          "name": "specialist",
          "type": "address"
        }
      ],
      "stateMutability": "view",
      "type": "function"
    },
    {
      "inputs": [
        {
          "internalType": "address",
          "name": "_nftAddress",
          "type": "address"
        },
        {
          "internalType": "uint256",
          "name": "_tokenId",
          "type": "uint256"
        }
      ],
      "name": "requestPrice",
      "outputs": [],
      "stateMutability": "nonpayable",
      "type": "function"
    },
    {
      "inputs": [
        {
          "internalType": "uint256",
          "name": "",
          "type": "uint256"
        }
      ],
      "name": "requests",
      "outputs": [
        {
          "internalType": "address",
          "name": "applicant",
          "type": "address"
        },
        {
          "internalType": "address",
          "name": "collection",
          "type": "address"
        },
        {
          "internalType": "uint256",
          "name": "tokenId",
          "type": "uint256"
        },
        {
          "internalType": "enum PriceFinder.RequestStatus",
          "name": "status",
          "type": "uint8"
        },
        {
          "internalType": "uint256",
          "name": "createdAt",
          "type": "uint256"
        }
      ],
      "stateMutability": "view",
      "type": "function"
    },
    {
      "inputs": [
        {
          "internalType": "address",
          "name": "",
          "type": "address"
        }
      ],
      "name": "specialists",
      "outputs": [
        {
          "internalType": "uint256",
          "name": "reputation",
          "type": "uint256"
        },
        {
          "internalType": "uint256",
          "name": "stakes",
          "type": "uint256"
        },
        {
          "internalType": "uint256",
          "name": "lockedWeight",
          "type": "uint256"
        }
      ],
      "stateMutability": "view",
      "type": "function"
    },
    {
      "inputs": [
        {
          "internalType": "uint256",
          "name": "amount",
          "type": "uint256"
        }
      ],
      "name": "stakeABK",
      "outputs": [],
      "stateMutability": "nonpayable",
      "type": "function"
    }
  ],
  "bytecode": "0x608060405234801561001057600080fd5b50613e5d806100206000396000f3fe608060405234801561001057600080fd5b50600436106101735760003560e01c806353ba22b7116100de578063c58343ef11610097578063c8cf472211610071578063c8cf47221461049d578063d73d55fe146104bb578063de50fa96146104d7578063ed9152c8146104f357610173565b8063c58343ef14610435578063c7b7ad3914610465578063c815729d1461048157610173565b806353ba22b71461034b578063608d1627146103675780637837ecba14610397578063809701b9146103b557806381d12c58146103d1578063c53d4e9e1461040557610173565b80632938ad27116101305780632938ad27146102635780632b1798251461027f5780633902d554146102af5780633fe41bda146102df578063485cc955146103115780634f4434521461032d57610173565b80630253ff3c1461017857806309f6095b146101a85780630e06d993146101c657806313e0efe7146101f6578063189df97d146102145780631c8a414714610232575b600080fd5b610192600480360381019061018d91906130c8565b610511565b60405161019f9190613870565b60405180910390f35b6101b06105d6565b6040516101bd9190613870565b60405180910390f35b6101e060048036038101906101db9190613192565b6105dc565b6040516101ed91906136a0565b60405180910390f35b6101fe6106ae565b60405161020b9190613870565b60405180910390f35b61021c6106b4565b6040516102299190613870565b60405180910390f35b61024c600480360381019061024791906131bb565b6106b9565b60405161025a92919061388b565b60405180910390f35b61027d60048036038101906102789190613192565b61071a565b005b610299600480360381019061029491906130c8565b6109d4565b6040516102a69190613855565b60405180910390f35b6102c960048036038101906102c49190613192565b610a4b565b6040516102d69190613870565b60405180910390f35b6102f960048036038101906102f491906130c8565b610c86565b604051610308939291906138dd565b60405180910390f35b61032b600480360381019061032691906130f1565b610cb0565b005b610335610e18565b6040516103429190613870565b60405180910390f35b610365600480360381019061036091906131bb565b610e1e565b005b610381600480360381019061037c9190613192565b611289565b60405161038e91906136c2565b60405180910390f35b61039f611634565b6040516103ac91906136e4565b60405180910390f35b6103cf60048036038101906103ca9190613192565b61165a565b005b6103eb60048036038101906103e69190613192565b61185a565b6040516103fc959493929190613624565b60405180910390f35b61041f600480360381019061041a91906130c8565b6118ed565b60405161042c9190613870565b60405180910390f35b61044f600480360381019061044a9190613192565b611985565b60405161045c919061383a565b60405180910390f35b61047f600480360381019061047a91906131f7565b611b2e565b005b61049b60048036038101906104969190613192565b611de9565b005b6104a5612204565b6040516104b29190613870565b60405180910390f35b6104d560048036038101906104d0919061312d565b612211565b005b6104f160048036038101906104ec9190613192565b61249d565b005b6104fb6126cf565b60405161050891906136ff565b60405180910390f35b600080603560008473ffffffffffffffffffffffffffffffffffffffff1673ffffffffffffffffffffffffffffffffffffffff168152602001908152602001600020604051806060016040529081600082015481526020016001820154815260200160028201548152505090506000816000015114156105955760009150506105d1565b6000816000015182602001516105ab9190613a1e565b905081600001518260400151826105c29190613a78565b6105cc91906139ed565b925050505b919050565b61271081565b606060346000838152602001908152602001600020805480602002602001604051908101604052809291908181526020016000905b828210156106a35783829060005260206000209060020201604051806040016040529081600082015481526020016001820160009054906101000a900473ffffffffffffffffffffffffffffffffffffffff1673ffffffffffffffffffffffffffffffffffffffff1673ffffffffffffffffffffffffffffffffffffffff168152505081526020019060010190610611565b505050509050919050565b6101f481565b607881565b603460205281600052604060002081815481106106d557600080fd5b9060005260206000209060020201600091509150508060000154908060010160009054906101000a900473ffffffffffffffffffffffffffffffffffffffff16905082565b600060338281548110610756577f4e487b7100000000000000000000000000000000000000000000000000000000600052603260045260246000fd5b906000526020600020906005020190503373ffffffffffffffffffffffffffffffffffffffff168160000160009054906101000a900473ffffffffffffffffffffffffffffffffffffffff1673ffffffffffffffffffffffffffffffffffffffff16146107f8576040517f08c379a00000000000000000000000000000000000000000000000000000000081526004016107ef906137fa565b60405180910390fd5b60006003811115610832577f4e487b7100000000000000000000000000000000000000000000000000000000600052602160045260246000fd5b8160030160009054906101000a900460ff16600381111561087c577f4e487b7100000000000000000000000000000000000000000000000000000000600052602160045260246000fd5b1461088657600080fd5b60008160010160009054906101000a900473ffffffffffffffffffffffffffffffffffffffff1690508073ffffffffffffffffffffffffffffffffffffffff166323b872dd308460000160009054906101000a900473ffffffffffffffffffffffffffffffffffffffff1685600201546040518463ffffffff1660e01b8152600401610914939291906135ed565b600060405180830381600087803b15801561092e57600080fd5b505af1158015610942573d6000803e3d6000fd5b5050505060018260030160006101000a81548160ff02191690836003811115610994577f4e487b7100000000000000000000000000000000000000000000000000000000600052602160045260246000fd5b02179055506109a2836126f5565b827f51470b97eff85c6e931350460943bd60fb87a4cd33a5eae3b4c3b686ac28df8b60405160405180910390a2505050565b6109dc612fa5565b603560008373ffffffffffffffffffffffffffffffffffffffff1673ffffffffffffffffffffffffffffffffffffffff16815260200190815260200160002060405180606001604052908160008201548152602001600182015481526020016002820154815250509050919050565b60008060346000848152602001908152602001600020805480602002602001604051908101604052809291908181526020016000905b82821015610b135783829060005260206000209060020201604051806040016040529081600082015481526020016001820160009054906101000a900473ffffffffffffffffffffffffffffffffffffffff1673ffffffffffffffffffffffffffffffffffffffff1673ffffffffffffffffffffffffffffffffffffffff168152505081526020019060010190610a81565b50505050905060008060005b8351811015610c5f57600060356000868481518110610b67577f4e487b7100000000000000000000000000000000000000000000000000000000600052603260045260246000fd5b60200260200101516020015173ffffffffffffffffffffffffffffffffffffffff1673ffffffffffffffffffffffffffffffffffffffff16815260200190815260200160002060405180606001604052908160008201548152602001600182015481526020016002820154815250509050806000015184610be89190613997565b9350848281518110610c23577f4e487b7100000000000000000000000000000000000000000000000000000000600052603260045260246000fd5b6020026020010151600001518160000151610c3e9190613a1e565b83610c499190613997565b9250508080610c5790613b61565b915050610b1f565b5060008214610c79578181610c7491906139ed565b610c7c565b60005b9350505050919050565b60356020528060005260406000206000915090508060000154908060010154908060020154905083565b600060019054906101000a900460ff16610cd85760008054906101000a900460ff1615610ce1565b610ce06128da565b5b610d20576040517f08c379a0000000000000000000000000000000000000000000000000000000008152600401610d179061377a565b60405180910390fd5b60008060019054906101000a900460ff161590508015610d70576001600060016101000a81548160ff02191690831515021790555060016000806101000a81548160ff0219169083151502179055505b82603660006101000a81548173ffffffffffffffffffffffffffffffffffffffff021916908373ffffffffffffffffffffffffffffffffffffffff16021790555081603760006101000a81548173ffffffffffffffffffffffffffffffffffffffff021916908373ffffffffffffffffffffffffffffffffffffffff1602179055508015610e135760008060016101000a81548160ff0219169083151502179055505b505050565b61271081565b60008111610e61576040517f08c379a0000000000000000000000000000000000000000000000000000000008152600401610e589061381a565b60405180910390fd5b600060338381548110610e9d577f4e487b7100000000000000000000000000000000000000000000000000000000600052603260045260246000fd5b90600052602060002090600502016040518060a00160405290816000820160009054906101000a900473ffffffffffffffffffffffffffffffffffffffff1673ffffffffffffffffffffffffffffffffffffffff1673ffffffffffffffffffffffffffffffffffffffff1681526020016001820160009054906101000a900473ffffffffffffffffffffffffffffffffffffffff1673ffffffffffffffffffffffffffffffffffffffff1673ffffffffffffffffffffffffffffffffffffffff168152602001600282015481526020016003820160009054906101000a900460ff166003811115610fb7577f4e487b7100000000000000000000000000000000000000000000000000000000600052602160045260246000fd5b6003811115610fef577f4e487b7100000000000000000000000000000000000000000000000000000000600052602160045260246000fd5b8152602001600482015481525050905060006003811115611039577f4e487b7100000000000000000000000000000000000000000000000000000000600052602160045260246000fd5b81606001516003811115611076577f4e487b7100000000000000000000000000000000000000000000000000000000600052602160045260246000fd5b146110b6576040517f08c379a00000000000000000000000000000000000000000000000000000000081526004016110ad9061373a565b60405180910390fd5b612710826110c49190613a1e565b6110cd336118ed565b1161110d576040517f08c379a0000000000000000000000000000000000000000000000000000000008152600401611104906137ba565b60405180910390fd5b6034600084815260200190815260200160002060405180604001604052808481526020013373ffffffffffffffffffffffffffffffffffffffff1681525090806001815401808255809150506001900390600052602060002090600202016000909190919091506000820151816000015560208201518160010160006101000a81548173ffffffffffffffffffffffffffffffffffffffff021916908373ffffffffffffffffffffffffffffffffffffffff16021790555050506000603560003373ffffffffffffffffffffffffffffffffffffffff1673ffffffffffffffffffffffffffffffffffffffff168152602001908152602001600020905080600001548361121a9190613a1e565b81600201600082825461122d9190613997565b925050819055503373ffffffffffffffffffffffffffffffffffffffff16847fcee31e6d51f6cfc7f2f1f928acf49499e5a6b9d16aca454e60de9801a3ded1308560405161127b9190613870565b60405180910390a350505050565b6060600060346000848152602001908152602001600020805480602002602001604051908101604052809291908181526020016000905b828210156113525783829060005260206000209060020201604051806040016040529081600082015481526020016001820160009054906101000a900473ffffffffffffffffffffffffffffffffffffffff1673ffffffffffffffffffffffffffffffffffffffff1673ffffffffffffffffffffffffffffffffffffffff1681525050815260200190600101906112c0565b505050509050600061136384610a4b565b905060006127106101f4836113789190613a1e565b61138291906139ed565b90506000805b845181101561143857603560008683815181106113ce577f4e487b7100000000000000000000000000000000000000000000000000000000600052603260045260246000fd5b60200260200101516020015173ffffffffffffffffffffffffffffffffffffffff1673ffffffffffffffffffffffffffffffffffffffff16815260200190815260200160002060000154826114239190613997565b9150808061143090613b61565b915050611388565b506000845167ffffffffffffffff81111561147c577f4e487b7100000000000000000000000000000000000000000000000000000000600052604160045260246000fd5b6040519080825280602002602001820160405280156114b557816020015b6114a2612fc6565b81526020019060019003908161149a5790505b50905060005b855181101561162657604051806040016040528084603560008a868151811061150d577f4e487b7100000000000000000000000000000000000000000000000000000000600052603260045260246000fd5b60200260200101516020015173ffffffffffffffffffffffffffffffffffffffff1673ffffffffffffffffffffffffffffffffffffffff16815260200190815260200160002060000154876115629190613a1e565b61156c91906139ed565b81526020018783815181106115aa577f4e487b7100000000000000000000000000000000000000000000000000000000600052603260045260246000fd5b60200260200101516020015173ffffffffffffffffffffffffffffffffffffffff16815250828281518110611608577f4e487b7100000000000000000000000000000000000000000000000000000000600052603260045260246000fd5b6020026020010181905250808061161e90613b61565b9150506114bb565b508095505050505050919050565b603660009054906101000a900473ffffffffffffffffffffffffffffffffffffffff1681565b600260015414156116a0576040517f08c379a0000000000000000000000000000000000000000000000000000000008152600401611697906137da565b60405180910390fd5b60026001819055506000603560003373ffffffffffffffffffffffffffffffffffffffff1673ffffffffffffffffffffffffffffffffffffffff1681526020019081526020016000209050816116f533610511565b1015611736576040517f08c379a000000000000000000000000000000000000000000000000000000000815260040161172d9061371a565b60405180910390fd5b603660009054906101000a900473ffffffffffffffffffffffffffffffffffffffff1673ffffffffffffffffffffffffffffffffffffffff1663a9059cbb33846040518363ffffffff1660e01b8152600401611793929190613677565b602060405180830381600087803b1580156117ad57600080fd5b505af11580156117c1573d6000803e3d6000fd5b505050506040513d601f19601f820116820180604052508101906117e59190613169565b50818160010160008282546117fa9190613a78565b925050819055503373ffffffffffffffffffffffffffffffffffffffff167f17d0436cc528026df5df232c3329f9c3d4b19983d373db24ac421fefafbe8012836040516118479190613870565b60405180910390a2506001808190555050565b6033818154811061186a57600080fd5b90600052602060002090600502016000915090508060000160009054906101000a900473ffffffffffffffffffffffffffffffffffffffff16908060010160009054906101000a900473ffffffffffffffffffffffffffffffffffffffff16908060020154908060030160009054906101000a900460ff16908060040154905085565b600080603560008473ffffffffffffffffffffffffffffffffffffffff1673ffffffffffffffffffffffffffffffffffffffff168152602001908152602001600020604051806060016040529081600082015481526020016001820154815260200160028201548152505090508060400151816000015182602001516119739190613a1e565b61197d9190613a78565b915050919050565b61198d612ff6565b603382815481106119c7577f4e487b7100000000000000000000000000000000000000000000000000000000600052603260045260246000fd5b90600052602060002090600502016040518060a00160405290816000820160009054906101000a900473ffffffffffffffffffffffffffffffffffffffff1673ffffffffffffffffffffffffffffffffffffffff1673ffffffffffffffffffffffffffffffffffffffff1681526020016001820160009054906101000a900473ffffffffffffffffffffffffffffffffffffffff1673ffffffffffffffffffffffffffffffffffffffff1673ffffffffffffffffffffffffffffffffffffffff168152602001600282015481526020016003820160009054906101000a900460ff166003811115611ae1577f4e487b7100000000000000000000000000000000000000000000000000000000600052602160045260246000fd5b6003811115611b19577f4e487b7100000000000000000000000000000000000000000000000000000000600052602160045260246000fd5b81526020016004820154815250509050919050565b603760009054906101000a900473ffffffffffffffffffffffffffffffffffffffff1673ffffffffffffffffffffffffffffffffffffffff163373ffffffffffffffffffffffffffffffffffffffff1614611bbe576040517f08c379a0000000000000000000000000000000000000000000000000000000008152600401611bb59061375a565b60405180910390fd5b600060338481548110611bfa577f4e487b7100000000000000000000000000000000000000000000000000000000600052603260045260246000fd5b90600052602060002090600502016040518060a00160405290816000820160009054906101000a900473ffffffffffffffffffffffffffffffffffffffff1673ffffffffffffffffffffffffffffffffffffffff1673ffffffffffffffffffffffffffffffffffffffff1681526020016001820160009054906101000a900473ffffffffffffffffffffffffffffffffffffffff1673ffffffffffffffffffffffffffffffffffffffff1673ffffffffffffffffffffffffffffffffffffffff168152602001600282015481526020016003820160009054906101000a900460ff166003811115611d14577f4e487b7100000000000000000000000000000000000000000000000000000000600052602160045260246000fd5b6003811115611d4c577f4e487b7100000000000000000000000000000000000000000000000000000000600052602160045260246000fd5b815260200160048201548152505090506000816020015190508073ffffffffffffffffffffffffffffffffffffffff166323b872dd308585604001516040518463ffffffff1660e01b8152600401611da6939291906135ed565b600060405180830381600087803b158015611dc057600080fd5b505af1158015611dd4573d6000803e3d6000fd5b50505050611de285856128eb565b5050505050565b60026001541415611e2f576040517f08c379a0000000000000000000000000000000000000000000000000000000008152600401611e26906137da565b60405180910390fd5b6002600181905550600060338281548110611e73577f4e487b7100000000000000000000000000000000000000000000000000000000600052603260045260246000fd5b9060005260206000209060050201905060006003811115611ebd577f4e487b7100000000000000000000000000000000000000000000000000000000600052602160045260246000fd5b8160030160009054906101000a900460ff166003811115611f07577f4e487b7100000000000000000000000000000000000000000000000000000000600052602160045260246000fd5b14611f1157600080fd5b3373ffffffffffffffffffffffffffffffffffffffff168160000160009054906101000a900473ffffffffffffffffffffffffffffffffffffffff1673ffffffffffffffffffffffffffffffffffffffff1614611fa3576040517f08c379a0000000000000000000000000000000000000000000000000000000008152600401611f9a906137fa565b60405180910390fd5b60788160040154611fb49190613997565b4211611ff5576040517f08c379a0000000000000000000000000000000000000000000000000000000008152600401611fec9061379a565b60405180910390fd5b600061200083610a4b565b905060006127106101f4836120159190613a1e565b61201f91906139ed565b9050603660009054906101000a900473ffffffffffffffffffffffffffffffffffffffff1673ffffffffffffffffffffffffffffffffffffffff166340c10f198460000160009054906101000a900473ffffffffffffffffffffffffffffffffffffffff1683856120909190613a78565b6040518363ffffffff1660e01b81526004016120ad929190613677565b600060405180830381600087803b1580156120c757600080fd5b505af11580156120db573d6000803e3d6000fd5b5050505060028360030160006101000a81548160ff0219169083600381111561212d577f4e487b7100000000000000000000000000000000000000000000000000000000600052602160045260246000fd5b021790555061213b84612d87565b603760009054906101000a900473ffffffffffffffffffffffffffffffffffffffff1673ffffffffffffffffffffffffffffffffffffffff16638a03905585846040518363ffffffff1660e01b81526004016121989291906138b4565b600060405180830381600087803b1580156121b257600080fd5b505af11580156121c6573d6000803e3d6000fd5b50505050837fbcacf710aa41ccef04977c6de1df444984621e2bd0c86e0b001620ab014d187460405160405180910390a25050506001808190555050565b6000603380549050905090565b60008290508073ffffffffffffffffffffffffffffffffffffffff166323b872dd3330856040518463ffffffff1660e01b8152600401612253939291906135ed565b600060405180830381600087803b15801561226d57600080fd5b505af1158015612281573d6000803e3d6000fd5b5050505060336040518060a001604052803373ffffffffffffffffffffffffffffffffffffffff1681526020018573ffffffffffffffffffffffffffffffffffffffff1681526020018481526020016000600381111561230a577f4e487b7100000000000000000000000000000000000000000000000000000000600052602160045260246000fd5b815260200142815250908060018154018082558091505060019003906000526020600020906005020160009091909190915060008201518160000160006101000a81548173ffffffffffffffffffffffffffffffffffffffff021916908373ffffffffffffffffffffffffffffffffffffffff16021790555060208201518160010160006101000a81548173ffffffffffffffffffffffffffffffffffffffff021916908373ffffffffffffffffffffffffffffffffffffffff1602179055506040820151816002015560608201518160030160006101000a81548160ff02191690836003811115612425577f4e487b7100000000000000000000000000000000000000000000000000000000600052602160045260246000fd5b021790555060808201518160040155505060016033805490506124489190613a78565b3373ffffffffffffffffffffffffffffffffffffffff167f7eb8245d70e9141745b2c0134d13db48d37fcc4789f4d77d78daeacd018f71c68585604051612490929190613677565b60405180910390a3505050565b600260015414156124e3576040517f08c379a00000000000000000000000000000000000000000000000000000000081526004016124da906137da565b60405180910390fd5b60026001819055506000603560003373ffffffffffffffffffffffffffffffffffffffff1673ffffffffffffffffffffffffffffffffffffffff1681526020019081526020016000209050603660009054906101000a900473ffffffffffffffffffffffffffffffffffffffff1673ffffffffffffffffffffffffffffffffffffffff166323b872dd3330856040518463ffffffff1660e01b815260040161258d939291906135ed565b602060405180830381600087803b1580156125a757600080fd5b505af11580156125bb573d6000803e3d6000fd5b505050506040513d601f19601f820116820180604052508101906125df9190613169565b506000816000015414156126095761271060016125fc9190613a1e565b816000018190555061265e565b60008160010154826000015461261f9190613a1e565b9050828260010154612710856126359190613a1e565b836126409190613997565b61264a91906139ed565b6126549190613997565b8260000181905550505b81816001015461266e9190613997565b81600101819055503373ffffffffffffffffffffffffffffffffffffffff167fc31d4e2a5975a58d82ca2db82c4bd875d4fcadae648b7ecb43c628736cfcd218836040516126bc9190613870565b60405180910390a2506001808190555050565b603760009054906101000a900473ffffffffffffffffffffffffffffffffffffffff1681565b600060346000838152602001908152602001600020805480602002602001604051908101604052809291908181526020016000905b828210156127bc5783829060005260206000209060020201604051806040016040529081600082015481526020016001820160009054906101000a900473ffffffffffffffffffffffffffffffffffffffff1673ffffffffffffffffffffffffffffffffffffffff1673ffffffffffffffffffffffffffffffffffffffff16815250508152602001906001019061272a565b50505050905060005b81518110156128d55760006035600084848151811061280d577f4e487b7100000000000000000000000000000000000000000000000000000000600052603260045260246000fd5b60200260200101516020015173ffffffffffffffffffffffffffffffffffffffff1673ffffffffffffffffffffffffffffffffffffffff1681526020019081526020016000209050612710838381518110612891577f4e487b7100000000000000000000000000000000000000000000000000000000600052603260045260246000fd5b6020026020010151600001516128a79190613a1e565b8160020160008282546128ba9190613a78565b925050819055505080806128cd90613b61565b9150506127c5565b505050565b60006128e530612f82565b15905090565b600060346000848152602001908152602001600020805480602002602001604051908101604052809291908181526020016000905b828210156129b25783829060005260206000209060020201604051806040016040529081600082015481526020016001820160009054906101000a900473ffffffffffffffffffffffffffffffffffffffff1673ffffffffffffffffffffffffffffffffffffffff1673ffffffffffffffffffffffffffffffffffffffff168152505081526020019060010190612920565b50505050905060006129c384610a4b565b905060008184116129d55760006129d8565b60015b90506000816129f25784836129ed9190613a78565b6129ff565b82856129fe9190613a78565b5b90506000818551612a109190613a1e565b90506000805b8651811015612d7c57600060356000898481518110612a5e577f4e487b7100000000000000000000000000000000000000000000000000000000600052603260045260246000fd5b60200260200101516020015173ffffffffffffffffffffffffffffffffffffffff1673ffffffffffffffffffffffffffffffffffffffff16815260200190815260200160002090506000888381518110612ae1577f4e487b7100000000000000000000000000000000000000000000000000000000600052603260045260246000fd5b6020026020010151600001518a119050600081612b4d578a8a8581518110612b32577f4e487b7100000000000000000000000000000000000000000000000000000000600052603260045260246000fd5b602002602001015160000151612b489190613a78565b612b9e565b898481518110612b86577f4e487b7100000000000000000000000000000000000000000000000000000000600052603260045260246000fd5b6020026020010151600001518b612b9d9190613a78565b5b9050600086612710838a612bb29190613a1e565b612bbc9190613a1e565b612bc691906139ed565b9050600084600101548560000154612bde9190613a1e565b9050600115612c0f5784600101548282612bf89190613997565b612c0291906139ed565b8560000181905550612ccd565b600085600101546127106001612c259190613a1e565b612c2f9190613a1e565b9050808383612c3e9190613a78565b1115612c6f576000866000018190555085600101548383612c5f9190613997565b612c6991906139ed565b50612ccb565b6127106001612c7e9190613a1e565b866000018190555060006127108484612c979190613a78565b612ca191906139ed565b9050808760010154612cb39190613a78565b89612cbe9190613997565b9850808760010181905550505b505b6000871115612d6457603660009054906101000a900473ffffffffffffffffffffffffffffffffffffffff1673ffffffffffffffffffffffffffffffffffffffff166342966c68886040518263ffffffff1660e01b8152600401612d319190613870565b600060405180830381600087803b158015612d4b57600080fd5b505af1158015612d5f573d6000803e3d6000fd5b505050505b50505050508080612d7490613b61565b915050612a16565b505050505050505050565b6000612d9282611289565b90506000805b8251811015612eed57600060356000858481518110612de0577f4e487b7100000000000000000000000000000000000000000000000000000000600052603260045260246000fd5b60200260200101516020015173ffffffffffffffffffffffffffffffffffffffff1673ffffffffffffffffffffffffffffffffffffffff1681526020019081526020016000209050838281518110612e61577f4e487b7100000000000000000000000000000000000000000000000000000000600052603260045260246000fd5b602002602001015160000151816001016000828254612e809190613997565b92505081905550838281518110612ec0577f4e487b7100000000000000000000000000000000000000000000000000000000600052603260045260246000fd5b60200260200101516000015183612ed79190613997565b9250508080612ee590613b61565b915050612d98565b50603660009054906101000a900473ffffffffffffffffffffffffffffffffffffffff1673ffffffffffffffffffffffffffffffffffffffff166340c10f1930836040518363ffffffff1660e01b8152600401612f4b929190613677565b600060405180830381600087803b158015612f6557600080fd5b505af1158015612f79573d6000803e3d6000fd5b50505050505050565b6000808273ffffffffffffffffffffffffffffffffffffffff163b119050919050565b60405180606001604052806000815260200160008152602001600081525090565b604051806040016040528060008152602001600073ffffffffffffffffffffffffffffffffffffffff1681525090565b6040518060a00160405280600073ffffffffffffffffffffffffffffffffffffffff168152602001600073ffffffffffffffffffffffffffffffffffffffff168152602001600081526020016000600381111561307c577f4e487b7100000000000000000000000000000000000000000000000000000000600052602160045260246000fd5b8152602001600081525090565b60008135905061309881613de2565b92915050565b6000815190506130ad81613df9565b92915050565b6000813590506130c281613e10565b92915050565b6000602082840312156130da57600080fd5b60006130e884828501613089565b91505092915050565b6000806040838503121561310457600080fd5b600061311285828601613089565b925050602061312385828601613089565b9150509250929050565b6000806040838503121561314057600080fd5b600061314e85828601613089565b925050602061315f858286016130b3565b9150509250929050565b60006020828403121561317b57600080fd5b60006131898482850161309e565b91505092915050565b6000602082840312156131a457600080fd5b60006131b2848285016130b3565b91505092915050565b600080604083850312156131ce57600080fd5b60006131dc858286016130b3565b92505060206131ed858286016130b3565b9150509250929050565b60008060006060848603121561320c57600080fd5b600061321a868287016130b3565b935050602061322b868287016130b3565b925050604061323c86828701613089565b9150509250925092565b600061325283836134c7565b60408301905092915050565b600061326a838361355e565b60408301905092915050565b61327f81613aac565b82525050565b61328e81613aac565b82525050565b600061329f82613934565b6132a98185613964565b93506132b483613914565b8060005b838110156132e55781516132cc8882613246565b97506132d78361394a565b9250506001810190506132b8565b5085935050505092915050565b60006132fd8261393f565b6133078185613975565b935061331283613924565b8060005b8381101561334357815161332a888261325e565b975061333583613957565b925050600181019050613316565b5085935050505092915050565b61335981613b07565b82525050565b61336881613b2b565b82525050565b61337781613b4f565b82525050565b61338681613b4f565b82525050565b6000613399600883613986565b91506133a482613c37565b602082019050919050565b60006133bc600a83613986565b91506133c782613c60565b602082019050919050565b60006133df601183613986565b91506133ea82613c89565b602082019050919050565b6000613402602e83613986565b915061340d82613cb2565b604082019050919050565b6000613425600983613986565b915061343082613d01565b602082019050919050565b6000613448601183613986565b915061345382613d2a565b602082019050919050565b600061346b601f83613986565b915061347682613d53565b602082019050919050565b600061348e600983613986565b915061349982613d7c565b602082019050919050565b60006134b1600d83613986565b91506134bc82613da5565b602082019050919050565b6040820160008201516134dd60008501826135cf565b5060208201516134f06020850182613276565b50505050565b60a08201600082015161350c6000850182613276565b50602082015161351f6020850182613276565b50604082015161353260408501826135cf565b506060820151613545606085018261336e565b50608082015161355860808501826135cf565b50505050565b60408201600082015161357460008501826135cf565b5060208201516135876020850182613276565b50505050565b6060820160008201516135a360008501826135cf565b5060208201516135b660208501826135cf565b5060408201516135c960408501826135cf565b50505050565b6135d881613afd565b82525050565b6135e781613afd565b82525050565b60006060820190506136026000830186613285565b61360f6020830185613285565b61361c60408301846135de565b949350505050565b600060a0820190506136396000830188613285565b6136466020830187613285565b61365360408301866135de565b613660606083018561337d565b61366d60808301846135de565b9695505050505050565b600060408201905061368c6000830185613285565b61369960208301846135de565b9392505050565b600060208201905081810360008301526136ba8184613294565b905092915050565b600060208201905081810360008301526136dc81846132f2565b905092915050565b60006020820190506136f96000830184613350565b92915050565b6000602082019050613714600083018461335f565b92915050565b600060208201905081810360008301526137338161338c565b9050919050565b60006020820190508181036000830152613753816133af565b9050919050565b60006020820190508181036000830152613773816133d2565b9050919050565b60006020820190508181036000830152613793816133f5565b9050919050565b600060208201905081810360008301526137b381613418565b9050919050565b600060208201905081810360008301526137d38161343b565b9050919050565b600060208201905081810360008301526137f38161345e565b9050919050565b6000602082019050818103600083015261381381613481565b9050919050565b60006020820190508181036000830152613833816134a4565b9050919050565b600060a08201905061384f60008301846134f6565b92915050565b600060608201905061386a600083018461358d565b92915050565b600060208201905061388560008301846135de565b92915050565b60006040820190506138a060008301856135de565b6138ad6020830184613285565b9392505050565b60006040820190506138c960008301856135de565b6138d660208301846135de565b9392505050565b60006060820190506138f260008301866135de565b6138ff60208301856135de565b61390c60408301846135de565b949350505050565b6000819050602082019050919050565b6000819050602082019050919050565b600081519050919050565b600081519050919050565b6000602082019050919050565b6000602082019050919050565b600082825260208201905092915050565b600082825260208201905092915050565b600082825260208201905092915050565b60006139a282613afd565b91506139ad83613afd565b9250827fffffffffffffffffffffffffffffffffffffffffffffffffffffffffffffffff038211156139e2576139e1613baa565b5b828201905092915050565b60006139f882613afd565b9150613a0383613afd565b925082613a1357613a12613bd9565b5b828204905092915050565b6000613a2982613afd565b9150613a3483613afd565b9250817fffffffffffffffffffffffffffffffffffffffffffffffffffffffffffffffff0483118215151615613a6d57613a6c613baa565b5b828202905092915050565b6000613a8382613afd565b9150613a8e83613afd565b925082821015613aa157613aa0613baa565b5b828203905092915050565b6000613ab782613add565b9050919050565b60008115159050919050565b6000819050613ad882613dce565b919050565b600073ffffffffffffffffffffffffffffffffffffffff82169050919050565b6000819050919050565b6000613b1282613b19565b9050919050565b6000613b2482613add565b9050919050565b6000613b3682613b3d565b9050919050565b6000613b4882613add565b9050919050565b6000613b5a82613aca565b9050919050565b6000613b6c82613afd565b91507fffffffffffffffffffffffffffffffffffffffffffffffffffffffffffffffff821415613b9f57613b9e613baa565b5b600182019050919050565b7f4e487b7100000000000000000000000000000000000000000000000000000000600052601160045260246000fd5b7f4e487b7100000000000000000000000000000000000000000000000000000000600052601260045260246000fd5b7f4e487b7100000000000000000000000000000000000000000000000000000000600052602160045260246000fd5b7f746f6f206d756368000000000000000000000000000000000000000000000000600082015250565b7f6e6f742061637469766500000000000000000000000000000000000000000000600082015250565b7f6f6e6c792061756374696f6e686f757365000000000000000000000000000000600082015250565b7f496e697469616c697a61626c653a20636f6e747261637420697320616c72656160008201527f647920696e697469616c697a6564000000000000000000000000000000000000602082015250565b7f6d75737420776169740000000000000000000000000000000000000000000000600082015250565b7f6e6f7420656e6f75676820776569676874000000000000000000000000000000600082015250565b7f5265656e7472616e637947756172643a207265656e7472616e742063616c6c00600082015250565b7f6e6f74206f776e65720000000000000000000000000000000000000000000000600082015250565b7f77726f6e67207375676765737400000000000000000000000000000000000000600082015250565b60048110613ddf57613dde613c08565b5b50565b613deb81613aac565b8114613df657600080fd5b50565b613e0281613abe565b8114613e0d57600080fd5b50565b613e1981613afd565b8114613e2457600080fd5b5056fea26469706673582212205d518c35cf04c9360e2bf5e5b868932c18bb08a873b96adfc247f7879412215b64736f6c63430008040033",
  "linkReferences": {},
  "deployedLinkReferences": {}
}