{
  "_format": "hh-sol-artifact-1",
  "contractName": "PriceFinder",
  "sourceName": "contracts/PriceFinder.sol",
  "abi": [
    {
      "inputs": [],
      "stateMutability": "nonpayable",
      "type": "constructor"
    },
    {
      "anonymous": false,
      "inputs": [
        {
          "indexed": true,
          "internalType": "uint256",
          "name": "requestId",
          "type": "uint256"
        }
      ],
      "name": "AcceptOffer",
      "type": "event"
    },
    {
      "anonymous": false,
      "inputs": [
        {
          "indexed": true,
          "internalType": "address",
          "name": "sender",
          "type": "address"
        },
        {
          "indexed": false,
          "internalType": "uint256",
          "name": "amount",
          "type": "uint256"
        }
      ],
      "name": "DeStakeSpecialist",
      "type": "event"
    },
    {
      "anonymous": false,
      "inputs": [
        {
          "indexed": true,
          "internalType": "uint256",
          "name": "requestId",
          "type": "uint256"
        },
        {
          "indexed": true,
          "internalType": "address",
          "name": "specialist",
          "type": "address"
        },
        {
          "indexed": false,
          "internalType": "uint256",
          "name": "value",
          "type": "uint256"
        }
      ],
      "name": "PricedAsset",
      "type": "event"
    },
    {
      "anonymous": false,
      "inputs": [
        {
          "indexed": true,
          "internalType": "uint256",
          "name": "requestId",
          "type": "uint256"
        }
      ],
      "name": "RequestDropped",
      "type": "event"
    },
    {
      "anonymous": false,
      "inputs": [
        {
          "indexed": true,
          "internalType": "address",
          "name": "applicant",
          "type": "address"
        },
        {
          "indexed": false,
          "internalType": "address",
          "name": "collection",
          "type": "address"
        },
        {
          "indexed": false,
          "internalType": "uint256",
          "name": "tokenId",
          "type": "uint256"
        },
        {
          "indexed": true,
          "internalType": "uint256",
          "name": "requestId",
          "type": "uint256"
        }
      ],
      "name": "RequestPrice",
      "type": "event"
    },
    {
      "anonymous": false,
      "inputs": [
        {
          "indexed": true,
          "internalType": "address",
          "name": "sender",
          "type": "address"
        },
        {
          "indexed": false,
          "internalType": "uint256",
          "name": "amount",
          "type": "uint256"
        }
      ],
      "name": "StakeSpecialist",
      "type": "event"
    },
    {
      "inputs": [],
      "name": "ABK",
      "outputs": [
        {
          "internalType": "contract ABKoin",
          "name": "",
          "type": "address"
        }
      ],
      "stateMutability": "view",
      "type": "function"
    },
    {
      "inputs": [],
      "name": "REPUTATION_MUL",
      "outputs": [
        {
          "internalType": "uint256",
          "name": "",
          "type": "uint256"
        }
      ],
      "stateMutability": "view",
      "type": "function"
    },
    {
      "inputs": [],
      "name": "SPECIALIST_FEE",
      "outputs": [
        {
          "internalType": "uint256",
          "name": "",
          "type": "uint256"
        }
      ],
      "stateMutability": "view",
      "type": "function"
    },
    {
      "inputs": [],
      "name": "SPECIALIST_FEE_DENOMINATOR",
      "outputs": [
        {
          "internalType": "uint256",
          "name": "",
          "type": "uint256"
        }
      ],
      "stateMutability": "view",
      "type": "function"
    },
    {
      "inputs": [],
      "name": "WAIT_PERIOD",
      "outputs": [
        {
          "internalType": "uint256",
          "name": "",
          "type": "uint256"
        }
      ],
      "stateMutability": "view",
      "type": "function"
    },
    {
      "inputs": [
        {
          "internalType": "uint256",
          "name": "_requestId",
          "type": "uint256"
        }
      ],
      "name": "acceptOffer",
      "outputs": [],
      "stateMutability": "nonpayable",
      "type": "function"
    },
    {
      "inputs": [],
      "name": "auctionHouse",
      "outputs": [
        {
          "internalType": "contract AuctionHouse",
          "name": "",
          "type": "address"
        }
      ],
      "stateMutability": "view",
      "type": "function"
    },
    {
      "inputs": [
        {
          "internalType": "uint256",
          "name": "_requestId",
          "type": "uint256"
        }
      ],
      "name": "calculateAssetOffer",
      "outputs": [
        {
          "internalType": "uint256",
          "name": "",
          "type": "uint256"
        }
      ],
      "stateMutability": "view",
      "type": "function"
    },
    {
      "inputs": [
        {
          "internalType": "address",
          "name": "_specialist",
          "type": "address"
        }
      ],
      "name": "calculateMaxDestaking",
      "outputs": [
        {
          "internalType": "uint256",
          "name": "",
          "type": "uint256"
        }
      ],
      "stateMutability": "view",
      "type": "function"
    },
    {
      "inputs": [
        {
          "internalType": "uint256",
          "name": "_requestId",
          "type": "uint256"
        }
      ],
      "name": "calculateSpecialistsRewards",
      "outputs": [
        {
          "components": [
            {
              "internalType": "uint256",
              "name": "amount",
              "type": "uint256"
            },
            {
              "internalType": "address",
              "name": "specialist",
              "type": "address"
            }
          ],
          "internalType": "struct PriceFinder.SepcialistReward[]",
          "name": "",
          "type": "tuple[]"
        }
      ],
      "stateMutability": "view",
      "type": "function"
    },
    {
      "inputs": [
        {
          "internalType": "uint256",
          "name": "amount",
          "type": "uint256"
        }
      ],
      "name": "destakeABK",
      "outputs": [],
      "stateMutability": "nonpayable",
      "type": "function"
    },
    {
      "inputs": [
        {
          "internalType": "uint256",
          "name": "_requestId",
          "type": "uint256"
        }
      ],
      "name": "dropRequest",
      "outputs": [],
      "stateMutability": "nonpayable",
      "type": "function"
    },
    {
      "inputs": [
        {
          "internalType": "uint256",
          "name": "_requestId",
          "type": "uint256"
        },
        {
          "internalType": "uint256",
          "name": "_finalPrice",
          "type": "uint256"
        },
        {
          "internalType": "address",
          "name": "_buyer",
          "type": "address"
        }
      ],
      "name": "finalizeRequest",
      "outputs": [],
      "stateMutability": "nonpayable",
      "type": "function"
    },
    {
      "inputs": [
        {
          "internalType": "uint256",
          "name": "_requestId",
          "type": "uint256"
        }
      ],
      "name": "getAssetOffers",
      "outputs": [
        {
          "components": [
            {
              "internalType": "uint256",
              "name": "value",
              "type": "uint256"
            },
            {
              "internalType": "address",
              "name": "specialist",
              "type": "address"
            }
          ],
          "internalType": "struct PriceFinder.Offer[]",
          "name": "offers",
          "type": "tuple[]"
        }
      ],
      "stateMutability": "view",
      "type": "function"
    },
    {
      "inputs": [
        {
          "internalType": "uint256",
          "name": "_requestId",
          "type": "uint256"
        }
      ],
      "name": "getRequest",
      "outputs": [
        {
          "components": [
            {
              "internalType": "address",
              "name": "applicant",
              "type": "address"
            },
            {
              "internalType": "address",
              "name": "collection",
              "type": "address"
            },
            {
              "internalType": "uint256",
              "name": "tokenId",
              "type": "uint256"
            },
            {
              "internalType": "enum PriceFinder.RequestStatus",
              "name": "status",
              "type": "uint8"
            },
            {
              "internalType": "uint256",
              "name": "createdAt",
              "type": "uint256"
            }
          ],
          "internalType": "struct PriceFinder.Request",
          "name": "",
          "type": "tuple"
        }
      ],
      "stateMutability": "view",
      "type": "function"
    },
    {
      "inputs": [],
      "name": "getRequests",
      "outputs": [
        {
          "components": [
            {
              "internalType": "address",
              "name": "applicant",
              "type": "address"
            },
            {
              "internalType": "address",
              "name": "collection",
              "type": "address"
            },
            {
              "internalType": "uint256",
              "name": "tokenId",
              "type": "uint256"
            },
            {
              "internalType": "enum PriceFinder.RequestStatus",
              "name": "status",
              "type": "uint8"
            },
            {
              "internalType": "uint256",
              "name": "createdAt",
              "type": "uint256"
            },
            {
              "internalType": "uint256",
              "name": "offer",
              "type": "uint256"
            }
          ],
          "internalType": "struct PriceFinder.RequestWithOffer[]",
          "name": "",
          "type": "tuple[]"
        }
      ],
      "stateMutability": "view",
      "type": "function"
    },
    {
      "inputs": [],
      "name": "getRequestsLength",
      "outputs": [
        {
          "internalType": "uint256",
          "name": "",
          "type": "uint256"
        }
      ],
      "stateMutability": "view",
      "type": "function"
    },
    {
      "inputs": [
        {
          "internalType": "address",
          "name": "_specialist",
          "type": "address"
        }
      ],
      "name": "getSpecialist",
      "outputs": [
        {
          "components": [
            {
              "internalType": "uint256",
              "name": "reputation",
              "type": "uint256"
            },
            {
              "internalType": "uint256",
              "name": "stakes",
              "type": "uint256"
            },
            {
              "internalType": "uint256",
              "name": "lockedWeight",
              "type": "uint256"
            }
          ],
          "internalType": "struct PriceFinder.Specialist",
          "name": "",
          "type": "tuple"
        }
      ],
      "stateMutability": "view",
      "type": "function"
    },
    {
      "inputs": [
        {
          "internalType": "address",
          "name": "_specialist",
          "type": "address"
        }
      ],
      "name": "getSpecialistFreeWeight",
      "outputs": [
        {
          "internalType": "uint256",
          "name": "",
          "type": "uint256"
        }
      ],
      "stateMutability": "view",
      "type": "function"
    },
    {
      "inputs": [
        {
          "internalType": "address",
          "name": "_ABKAddress",
          "type": "address"
        },
        {
          "internalType": "address",
          "name": "_auctionHouseAddress",
          "type": "address"
        }
      ],
      "name": "initialize",
      "outputs": [],
      "stateMutability": "nonpayable",
      "type": "function"
    },
    {
      "inputs": [
        {
          "internalType": "uint256",
          "name": "_requestId",
          "type": "uint256"
        },
        {
          "internalType": "uint256",
          "name": "_suggestedPrice",
          "type": "uint256"
        }
      ],
      "name": "priceAsset",
      "outputs": [],
      "stateMutability": "nonpayable",
      "type": "function"
    },
    {
      "inputs": [
        {
          "internalType": "uint256",
          "name": "",
          "type": "uint256"
        },
        {
          "internalType": "uint256",
          "name": "",
          "type": "uint256"
        }
      ],
      "name": "requestOffers",
      "outputs": [
        {
          "internalType": "uint256",
          "name": "value",
          "type": "uint256"
        },
        {
          "internalType": "address",
          "name": "specialist",
          "type": "address"
        }
      ],
      "stateMutability": "view",
      "type": "function"
    },
    {
      "inputs": [
        {
          "internalType": "address",
          "name": "_nftAddress",
          "type": "address"
        },
        {
          "internalType": "uint256",
          "name": "_tokenId",
          "type": "uint256"
        }
      ],
      "name": "requestPrice",
      "outputs": [],
      "stateMutability": "nonpayable",
      "type": "function"
    },
    {
      "inputs": [
        {
          "internalType": "uint256",
          "name": "",
          "type": "uint256"
        }
      ],
      "name": "requests",
      "outputs": [
        {
          "internalType": "address",
          "name": "applicant",
          "type": "address"
        },
        {
          "internalType": "address",
          "name": "collection",
          "type": "address"
        },
        {
          "internalType": "uint256",
          "name": "tokenId",
          "type": "uint256"
        },
        {
          "internalType": "enum PriceFinder.RequestStatus",
          "name": "status",
          "type": "uint8"
        },
        {
          "internalType": "uint256",
          "name": "createdAt",
          "type": "uint256"
        }
      ],
      "stateMutability": "view",
      "type": "function"
    },
    {
      "inputs": [
        {
          "internalType": "address",
          "name": "",
          "type": "address"
        }
      ],
      "name": "specialists",
      "outputs": [
        {
          "internalType": "uint256",
          "name": "reputation",
          "type": "uint256"
        },
        {
          "internalType": "uint256",
          "name": "stakes",
          "type": "uint256"
        },
        {
          "internalType": "uint256",
          "name": "lockedWeight",
          "type": "uint256"
        }
      ],
      "stateMutability": "view",
      "type": "function"
    },
    {
      "inputs": [
        {
          "internalType": "uint256",
          "name": "amount",
          "type": "uint256"
        }
      ],
      "name": "stakeABK",
      "outputs": [],
      "stateMutability": "nonpayable",
      "type": "function"
    }
  ],
  "bytecode": "0x608060405234801561001057600080fd5b506143cd806100206000396000f3fe608060405234801561001057600080fd5b506004361061018e5760003560e01c8063608d1627116100de578063c58343ef11610097578063c8cf472211610071578063c8cf4722146104d6578063d73d55fe146104f4578063de50fa9614610510578063ed9152c81461052c5761018e565b8063c58343ef1461046e578063c7b7ad391461049e578063c815729d146104ba5761018e565b8063608d1627146103825780637837ecba146103b2578063809701b9146103d057806381d12c58146103ec5780638813ce1214610420578063c53d4e9e1461043e5761018e565b80632938ad271161014b5780633fe41bda116101255780633fe41bda146102fa578063485cc9551461032c5780634f4434521461034857806353ba22b7146103665761018e565b80632938ad271461027e5780632b1798251461029a5780633902d554146102ca5761018e565b80630253ff3c1461019357806309f6095b146101c35780630e06d993146101e157806313e0efe714610211578063189df97d1461022f5780631c8a41471461024d575b600080fd5b6101ad60048036038101906101a891906134ec565b61054a565b6040516101ba9190613da7565b60405180910390f35b6101cb61060f565b6040516101d89190613da7565b60405180910390f35b6101fb60048036038101906101f691906135b6565b610615565b6040516102089190613bb5565b60405180910390f35b6102196106e7565b6040516102269190613da7565b60405180910390f35b6102376106ed565b6040516102449190613da7565b60405180910390f35b610267600480360381019061026291906135df565b6106f2565b604051610275929190613dc2565b60405180910390f35b610298600480360381019061029391906135b6565b610753565b005b6102b460048036038101906102af91906134ec565b610a0d565b6040516102c19190613d8c565b60405180910390f35b6102e460048036038101906102df91906135b6565b610a84565b6040516102f19190613da7565b60405180910390f35b610314600480360381019061030f91906134ec565b610cbf565b60405161032393929190613e14565b60405180910390f35b61034660048036038101906103419190613515565b610ce9565b005b610350610e51565b60405161035d9190613da7565b60405180910390f35b610380600480360381019061037b91906135df565b610e57565b005b61039c600480360381019061039791906135b6565b6112c2565b6040516103a99190613bf9565b60405180910390f35b6103ba61166d565b6040516103c79190613c1b565b60405180910390f35b6103ea60048036038101906103e591906135b6565b611693565b005b610406600480360381019061040191906135b6565b611893565b604051610417959493929190613b39565b60405180910390f35b610428611926565b6040516104359190613bd7565b60405180910390f35b610458600480360381019061045391906134ec565b611c77565b6040516104659190613da7565b60405180910390f35b610488600480360381019061048391906135b6565b611d0f565b6040516104959190613d71565b60405180910390f35b6104b860048036038101906104b3919061361b565b611eb8565b005b6104d460048036038101906104cf91906135b6565b612173565b005b6104de61258e565b6040516104eb9190613da7565b60405180910390f35b61050e60048036038101906105099190613551565b61259b565b005b61052a600480360381019061052591906135b6565b612827565b005b610534612a59565b6040516105419190613c36565b60405180910390f35b600080603560008473ffffffffffffffffffffffffffffffffffffffff1673ffffffffffffffffffffffffffffffffffffffff168152602001908152602001600020604051806060016040529081600082015481526020016001820154815260200160028201548152505090506000816000015114156105ce57600091505061060a565b6000816000015182602001516105e49190613f8e565b905081600001518260400151826105fb9190613fe8565b6106059190613f5d565b925050505b919050565b61271081565b606060346000838152602001908152602001600020805480602002602001604051908101604052809291908181526020016000905b828210156106dc5783829060005260206000209060020201604051806040016040529081600082015481526020016001820160009054906101000a900473ffffffffffffffffffffffffffffffffffffffff1673ffffffffffffffffffffffffffffffffffffffff1673ffffffffffffffffffffffffffffffffffffffff16815250508152602001906001019061064a565b505050509050919050565b6101f481565b607881565b6034602052816000526040600020818154811061070e57600080fd5b9060005260206000209060020201600091509150508060000154908060010160009054906101000a900473ffffffffffffffffffffffffffffffffffffffff16905082565b60006033828154811061078f577f4e487b7100000000000000000000000000000000000000000000000000000000600052603260045260246000fd5b906000526020600020906005020190503373ffffffffffffffffffffffffffffffffffffffff168160000160009054906101000a900473ffffffffffffffffffffffffffffffffffffffff1673ffffffffffffffffffffffffffffffffffffffff1614610831576040517f08c379a000000000000000000000000000000000000000000000000000000000815260040161082890613d31565b60405180910390fd5b6000600381111561086b577f4e487b7100000000000000000000000000000000000000000000000000000000600052602160045260246000fd5b8160030160009054906101000a900460ff1660038111156108b5577f4e487b7100000000000000000000000000000000000000000000000000000000600052602160045260246000fd5b146108bf57600080fd5b60008160010160009054906101000a900473ffffffffffffffffffffffffffffffffffffffff1690508073ffffffffffffffffffffffffffffffffffffffff166323b872dd308460000160009054906101000a900473ffffffffffffffffffffffffffffffffffffffff1685600201546040518463ffffffff1660e01b815260040161094d93929190613b02565b600060405180830381600087803b15801561096757600080fd5b505af115801561097b573d6000803e3d6000fd5b5050505060018260030160006101000a81548160ff021916908360038111156109cd577f4e487b7100000000000000000000000000000000000000000000000000000000600052602160045260246000fd5b02179055506109db83612a7f565b827f51470b97eff85c6e931350460943bd60fb87a4cd33a5eae3b4c3b686ac28df8b60405160405180910390a2505050565b610a1561332f565b603560008373ffffffffffffffffffffffffffffffffffffffff1673ffffffffffffffffffffffffffffffffffffffff16815260200190815260200160002060405180606001604052908160008201548152602001600182015481526020016002820154815250509050919050565b60008060346000848152602001908152602001600020805480602002602001604051908101604052809291908181526020016000905b82821015610b4c5783829060005260206000209060020201604051806040016040529081600082015481526020016001820160009054906101000a900473ffffffffffffffffffffffffffffffffffffffff1673ffffffffffffffffffffffffffffffffffffffff1673ffffffffffffffffffffffffffffffffffffffff168152505081526020019060010190610aba565b50505050905060008060005b8351811015610c9857600060356000868481518110610ba0577f4e487b7100000000000000000000000000000000000000000000000000000000600052603260045260246000fd5b60200260200101516020015173ffffffffffffffffffffffffffffffffffffffff1673ffffffffffffffffffffffffffffffffffffffff16815260200190815260200160002060405180606001604052908160008201548152602001600182015481526020016002820154815250509050806000015184610c219190613f07565b9350848281518110610c5c577f4e487b7100000000000000000000000000000000000000000000000000000000600052603260045260246000fd5b6020026020010151600001518160000151610c779190613f8e565b83610c829190613f07565b9250508080610c90906140d1565b915050610b58565b5060008214610cb2578181610cad9190613f5d565b610cb5565b60005b9350505050919050565b60356020528060005260406000206000915090508060000154908060010154908060020154905083565b600060019054906101000a900460ff16610d115760008054906101000a900460ff1615610d1a565b610d19612c64565b5b610d59576040517f08c379a0000000000000000000000000000000000000000000000000000000008152600401610d5090613cb1565b60405180910390fd5b60008060019054906101000a900460ff161590508015610da9576001600060016101000a81548160ff02191690831515021790555060016000806101000a81548160ff0219169083151502179055505b82603660006101000a81548173ffffffffffffffffffffffffffffffffffffffff021916908373ffffffffffffffffffffffffffffffffffffffff16021790555081603760006101000a81548173ffffffffffffffffffffffffffffffffffffffff021916908373ffffffffffffffffffffffffffffffffffffffff1602179055508015610e4c5760008060016101000a81548160ff0219169083151502179055505b505050565b61271081565b60008111610e9a576040517f08c379a0000000000000000000000000000000000000000000000000000000008152600401610e9190613d51565b60405180910390fd5b600060338381548110610ed6577f4e487b7100000000000000000000000000000000000000000000000000000000600052603260045260246000fd5b90600052602060002090600502016040518060a00160405290816000820160009054906101000a900473ffffffffffffffffffffffffffffffffffffffff1673ffffffffffffffffffffffffffffffffffffffff1673ffffffffffffffffffffffffffffffffffffffff1681526020016001820160009054906101000a900473ffffffffffffffffffffffffffffffffffffffff1673ffffffffffffffffffffffffffffffffffffffff1673ffffffffffffffffffffffffffffffffffffffff168152602001600282015481526020016003820160009054906101000a900460ff166003811115610ff0577f4e487b7100000000000000000000000000000000000000000000000000000000600052602160045260246000fd5b6003811115611028577f4e487b7100000000000000000000000000000000000000000000000000000000600052602160045260246000fd5b8152602001600482015481525050905060006003811115611072577f4e487b7100000000000000000000000000000000000000000000000000000000600052602160045260246000fd5b816060015160038111156110af577f4e487b7100000000000000000000000000000000000000000000000000000000600052602160045260246000fd5b146110ef576040517f08c379a00000000000000000000000000000000000000000000000000000000081526004016110e690613c71565b60405180910390fd5b612710826110fd9190613f8e565b61110633611c77565b11611146576040517f08c379a000000000000000000000000000000000000000000000000000000000815260040161113d90613cf1565b60405180910390fd5b6034600084815260200190815260200160002060405180604001604052808481526020013373ffffffffffffffffffffffffffffffffffffffff1681525090806001815401808255809150506001900390600052602060002090600202016000909190919091506000820151816000015560208201518160010160006101000a81548173ffffffffffffffffffffffffffffffffffffffff021916908373ffffffffffffffffffffffffffffffffffffffff16021790555050506000603560003373ffffffffffffffffffffffffffffffffffffffff1673ffffffffffffffffffffffffffffffffffffffff16815260200190815260200160002090508060000154836112539190613f8e565b8160020160008282546112669190613f07565b925050819055503373ffffffffffffffffffffffffffffffffffffffff16847fcee31e6d51f6cfc7f2f1f928acf49499e5a6b9d16aca454e60de9801a3ded130856040516112b49190613da7565b60405180910390a350505050565b6060600060346000848152602001908152602001600020805480602002602001604051908101604052809291908181526020016000905b8282101561138b5783829060005260206000209060020201604051806040016040529081600082015481526020016001820160009054906101000a900473ffffffffffffffffffffffffffffffffffffffff1673ffffffffffffffffffffffffffffffffffffffff1673ffffffffffffffffffffffffffffffffffffffff1681525050815260200190600101906112f9565b505050509050600061139c84610a84565b905060006127106101f4836113b19190613f8e565b6113bb9190613f5d565b90506000805b84518110156114715760356000868381518110611407577f4e487b7100000000000000000000000000000000000000000000000000000000600052603260045260246000fd5b60200260200101516020015173ffffffffffffffffffffffffffffffffffffffff1673ffffffffffffffffffffffffffffffffffffffff168152602001908152602001600020600001548261145c9190613f07565b91508080611469906140d1565b9150506113c1565b506000845167ffffffffffffffff8111156114b5577f4e487b7100000000000000000000000000000000000000000000000000000000600052604160045260246000fd5b6040519080825280602002602001820160405280156114ee57816020015b6114db613350565b8152602001906001900390816114d35790505b50905060005b855181101561165f57604051806040016040528084603560008a8681518110611546577f4e487b7100000000000000000000000000000000000000000000000000000000600052603260045260246000fd5b60200260200101516020015173ffffffffffffffffffffffffffffffffffffffff1673ffffffffffffffffffffffffffffffffffffffff168152602001908152602001600020600001548761159b9190613f8e565b6115a59190613f5d565b81526020018783815181106115e3577f4e487b7100000000000000000000000000000000000000000000000000000000600052603260045260246000fd5b60200260200101516020015173ffffffffffffffffffffffffffffffffffffffff16815250828281518110611641577f4e487b7100000000000000000000000000000000000000000000000000000000600052603260045260246000fd5b60200260200101819052508080611657906140d1565b9150506114f4565b508095505050505050919050565b603660009054906101000a900473ffffffffffffffffffffffffffffffffffffffff1681565b600260015414156116d9576040517f08c379a00000000000000000000000000000000000000000000000000000000081526004016116d090613d11565b60405180910390fd5b60026001819055506000603560003373ffffffffffffffffffffffffffffffffffffffff1673ffffffffffffffffffffffffffffffffffffffff16815260200190815260200160002090508161172e3361054a565b101561176f576040517f08c379a000000000000000000000000000000000000000000000000000000000815260040161176690613c51565b60405180910390fd5b603660009054906101000a900473ffffffffffffffffffffffffffffffffffffffff1673ffffffffffffffffffffffffffffffffffffffff1663a9059cbb33846040518363ffffffff1660e01b81526004016117cc929190613b8c565b602060405180830381600087803b1580156117e657600080fd5b505af11580156117fa573d6000803e3d6000fd5b505050506040513d601f19601f8201168201806040525081019061181e919061358d565b50818160010160008282546118339190613fe8565b925050819055503373ffffffffffffffffffffffffffffffffffffffff167f17d0436cc528026df5df232c3329f9c3d4b19983d373db24ac421fefafbe8012836040516118809190613da7565b60405180910390a2506001808190555050565b603381815481106118a357600080fd5b90600052602060002090600502016000915090508060000160009054906101000a900473ffffffffffffffffffffffffffffffffffffffff16908060010160009054906101000a900473ffffffffffffffffffffffffffffffffffffffff16908060020154908060030160009054906101000a900460ff16908060040154905085565b6060600060338054905067ffffffffffffffff81111561196f577f4e487b7100000000000000000000000000000000000000000000000000000000600052604160045260246000fd5b6040519080825280602002602001820160405280156119a857816020015b611995613380565b81526020019060019003908161198d5790505b50905060005b603380549050811015611c6f576040518060c0016040528060338381548110611a00577f4e487b7100000000000000000000000000000000000000000000000000000000600052603260045260246000fd5b906000526020600020906005020160000160009054906101000a900473ffffffffffffffffffffffffffffffffffffffff1673ffffffffffffffffffffffffffffffffffffffff16815260200160338381548110611a87577f4e487b7100000000000000000000000000000000000000000000000000000000600052603260045260246000fd5b906000526020600020906005020160010160009054906101000a900473ffffffffffffffffffffffffffffffffffffffff1673ffffffffffffffffffffffffffffffffffffffff16815260200160338381548110611b0e577f4e487b7100000000000000000000000000000000000000000000000000000000600052603260045260246000fd5b906000526020600020906005020160020154815260200160338381548110611b5f577f4e487b7100000000000000000000000000000000000000000000000000000000600052603260045260246000fd5b906000526020600020906005020160030160009054906101000a900460ff166003811115611bb6577f4e487b7100000000000000000000000000000000000000000000000000000000600052602160045260246000fd5b815260200160338381548110611bf5577f4e487b7100000000000000000000000000000000000000000000000000000000600052603260045260246000fd5b9060005260206000209060050201600401548152602001611c1583610a84565b815250828281518110611c51577f4e487b7100000000000000000000000000000000000000000000000000000000600052603260045260246000fd5b60200260200101819052508080611c67906140d1565b9150506119ae565b508091505090565b600080603560008473ffffffffffffffffffffffffffffffffffffffff1673ffffffffffffffffffffffffffffffffffffffff16815260200190815260200160002060405180606001604052908160008201548152602001600182015481526020016002820154815250509050806040015181600001518260200151611cfd9190613f8e565b611d079190613fe8565b915050919050565b611d1761341a565b60338281548110611d51577f4e487b7100000000000000000000000000000000000000000000000000000000600052603260045260246000fd5b90600052602060002090600502016040518060a00160405290816000820160009054906101000a900473ffffffffffffffffffffffffffffffffffffffff1673ffffffffffffffffffffffffffffffffffffffff1673ffffffffffffffffffffffffffffffffffffffff1681526020016001820160009054906101000a900473ffffffffffffffffffffffffffffffffffffffff1673ffffffffffffffffffffffffffffffffffffffff1673ffffffffffffffffffffffffffffffffffffffff168152602001600282015481526020016003820160009054906101000a900460ff166003811115611e6b577f4e487b7100000000000000000000000000000000000000000000000000000000600052602160045260246000fd5b6003811115611ea3577f4e487b7100000000000000000000000000000000000000000000000000000000600052602160045260246000fd5b81526020016004820154815250509050919050565b603760009054906101000a900473ffffffffffffffffffffffffffffffffffffffff1673ffffffffffffffffffffffffffffffffffffffff163373ffffffffffffffffffffffffffffffffffffffff1614611f48576040517f08c379a0000000000000000000000000000000000000000000000000000000008152600401611f3f90613c91565b60405180910390fd5b600060338481548110611f84577f4e487b7100000000000000000000000000000000000000000000000000000000600052603260045260246000fd5b90600052602060002090600502016040518060a00160405290816000820160009054906101000a900473ffffffffffffffffffffffffffffffffffffffff1673ffffffffffffffffffffffffffffffffffffffff1673ffffffffffffffffffffffffffffffffffffffff1681526020016001820160009054906101000a900473ffffffffffffffffffffffffffffffffffffffff1673ffffffffffffffffffffffffffffffffffffffff1673ffffffffffffffffffffffffffffffffffffffff168152602001600282015481526020016003820160009054906101000a900460ff16600381111561209e577f4e487b7100000000000000000000000000000000000000000000000000000000600052602160045260246000fd5b60038111156120d6577f4e487b7100000000000000000000000000000000000000000000000000000000600052602160045260246000fd5b815260200160048201548152505090506000816020015190508073ffffffffffffffffffffffffffffffffffffffff166323b872dd308585604001516040518463ffffffff1660e01b815260040161213093929190613b02565b600060405180830381600087803b15801561214a57600080fd5b505af115801561215e573d6000803e3d6000fd5b5050505061216c8585612c75565b5050505050565b600260015414156121b9576040517f08c379a00000000000000000000000000000000000000000000000000000000081526004016121b090613d11565b60405180910390fd5b60026001819055506000603382815481106121fd577f4e487b7100000000000000000000000000000000000000000000000000000000600052603260045260246000fd5b9060005260206000209060050201905060006003811115612247577f4e487b7100000000000000000000000000000000000000000000000000000000600052602160045260246000fd5b8160030160009054906101000a900460ff166003811115612291577f4e487b7100000000000000000000000000000000000000000000000000000000600052602160045260246000fd5b1461229b57600080fd5b3373ffffffffffffffffffffffffffffffffffffffff168160000160009054906101000a900473ffffffffffffffffffffffffffffffffffffffff1673ffffffffffffffffffffffffffffffffffffffff161461232d576040517f08c379a000000000000000000000000000000000000000000000000000000000815260040161232490613d31565b60405180910390fd5b6078816004015461233e9190613f07565b421161237f576040517f08c379a000000000000000000000000000000000000000000000000000000000815260040161237690613cd1565b60405180910390fd5b600061238a83610a84565b905060006127106101f48361239f9190613f8e565b6123a99190613f5d565b9050603660009054906101000a900473ffffffffffffffffffffffffffffffffffffffff1673ffffffffffffffffffffffffffffffffffffffff166340c10f198460000160009054906101000a900473ffffffffffffffffffffffffffffffffffffffff16838561241a9190613fe8565b6040518363ffffffff1660e01b8152600401612437929190613b8c565b600060405180830381600087803b15801561245157600080fd5b505af1158015612465573d6000803e3d6000fd5b5050505060028360030160006101000a81548160ff021916908360038111156124b7577f4e487b7100000000000000000000000000000000000000000000000000000000600052602160045260246000fd5b02179055506124c584613111565b603760009054906101000a900473ffffffffffffffffffffffffffffffffffffffff1673ffffffffffffffffffffffffffffffffffffffff16638a03905585846040518363ffffffff1660e01b8152600401612522929190613deb565b600060405180830381600087803b15801561253c57600080fd5b505af1158015612550573d6000803e3d6000fd5b50505050837fbcacf710aa41ccef04977c6de1df444984621e2bd0c86e0b001620ab014d187460405160405180910390a25050506001808190555050565b6000603380549050905090565b60008290508073ffffffffffffffffffffffffffffffffffffffff166323b872dd3330856040518463ffffffff1660e01b81526004016125dd93929190613b02565b600060405180830381600087803b1580156125f757600080fd5b505af115801561260b573d6000803e3d6000fd5b5050505060336040518060a001604052803373ffffffffffffffffffffffffffffffffffffffff1681526020018573ffffffffffffffffffffffffffffffffffffffff16815260200184815260200160006003811115612694577f4e487b7100000000000000000000000000000000000000000000000000000000600052602160045260246000fd5b815260200142815250908060018154018082558091505060019003906000526020600020906005020160009091909190915060008201518160000160006101000a81548173ffffffffffffffffffffffffffffffffffffffff021916908373ffffffffffffffffffffffffffffffffffffffff16021790555060208201518160010160006101000a81548173ffffffffffffffffffffffffffffffffffffffff021916908373ffffffffffffffffffffffffffffffffffffffff1602179055506040820151816002015560608201518160030160006101000a81548160ff021916908360038111156127af577f4e487b7100000000000000000000000000000000000000000000000000000000600052602160045260246000fd5b021790555060808201518160040155505060016033805490506127d29190613fe8565b3373ffffffffffffffffffffffffffffffffffffffff167f7eb8245d70e9141745b2c0134d13db48d37fcc4789f4d77d78daeacd018f71c6858560405161281a929190613b8c565b60405180910390a3505050565b6002600154141561286d576040517f08c379a000000000000000000000000000000000000000000000000000000000815260040161286490613d11565b60405180910390fd5b60026001819055506000603560003373ffffffffffffffffffffffffffffffffffffffff1673ffffffffffffffffffffffffffffffffffffffff1681526020019081526020016000209050603660009054906101000a900473ffffffffffffffffffffffffffffffffffffffff1673ffffffffffffffffffffffffffffffffffffffff166323b872dd3330856040518463ffffffff1660e01b815260040161291793929190613b02565b602060405180830381600087803b15801561293157600080fd5b505af1158015612945573d6000803e3d6000fd5b505050506040513d601f19601f82011682018060405250810190612969919061358d565b506000816000015414156129935761271060016129869190613f8e565b81600001819055506129e8565b6000816001015482600001546129a99190613f8e565b9050828260010154612710856129bf9190613f8e565b836129ca9190613f07565b6129d49190613f5d565b6129de9190613f07565b8260000181905550505b8181600101546129f89190613f07565b81600101819055503373ffffffffffffffffffffffffffffffffffffffff167fc31d4e2a5975a58d82ca2db82c4bd875d4fcadae648b7ecb43c628736cfcd21883604051612a469190613da7565b60405180910390a2506001808190555050565b603760009054906101000a900473ffffffffffffffffffffffffffffffffffffffff1681565b600060346000838152602001908152602001600020805480602002602001604051908101604052809291908181526020016000905b82821015612b465783829060005260206000209060020201604051806040016040529081600082015481526020016001820160009054906101000a900473ffffffffffffffffffffffffffffffffffffffff1673ffffffffffffffffffffffffffffffffffffffff1673ffffffffffffffffffffffffffffffffffffffff168152505081526020019060010190612ab4565b50505050905060005b8151811015612c5f57600060356000848481518110612b97577f4e487b7100000000000000000000000000000000000000000000000000000000600052603260045260246000fd5b60200260200101516020015173ffffffffffffffffffffffffffffffffffffffff1673ffffffffffffffffffffffffffffffffffffffff1681526020019081526020016000209050612710838381518110612c1b577f4e487b7100000000000000000000000000000000000000000000000000000000600052603260045260246000fd5b602002602001015160000151612c319190613f8e565b816002016000828254612c449190613fe8565b92505081905550508080612c57906140d1565b915050612b4f565b505050565b6000612c6f3061330c565b15905090565b600060346000848152602001908152602001600020805480602002602001604051908101604052809291908181526020016000905b82821015612d3c5783829060005260206000209060020201604051806040016040529081600082015481526020016001820160009054906101000a900473ffffffffffffffffffffffffffffffffffffffff1673ffffffffffffffffffffffffffffffffffffffff1673ffffffffffffffffffffffffffffffffffffffff168152505081526020019060010190612caa565b5050505090506000612d4d84610a84565b90506000818411612d5f576000612d62565b60015b9050600081612d7c578483612d779190613fe8565b612d89565b8285612d889190613fe8565b5b90506000818551612d9a9190613f8e565b90506000805b865181101561310657600060356000898481518110612de8577f4e487b7100000000000000000000000000000000000000000000000000000000600052603260045260246000fd5b60200260200101516020015173ffffffffffffffffffffffffffffffffffffffff1673ffffffffffffffffffffffffffffffffffffffff16815260200190815260200160002090506000888381518110612e6b577f4e487b7100000000000000000000000000000000000000000000000000000000600052603260045260246000fd5b6020026020010151600001518a119050600081612ed7578a8a8581518110612ebc577f4e487b7100000000000000000000000000000000000000000000000000000000600052603260045260246000fd5b602002602001015160000151612ed29190613fe8565b612f28565b898481518110612f10577f4e487b7100000000000000000000000000000000000000000000000000000000600052603260045260246000fd5b6020026020010151600001518b612f279190613fe8565b5b9050600086612710838a612f3c9190613f8e565b612f469190613f8e565b612f509190613f5d565b9050600084600101548560000154612f689190613f8e565b9050600115612f995784600101548282612f829190613f07565b612f8c9190613f5d565b8560000181905550613057565b600085600101546127106001612faf9190613f8e565b612fb99190613f8e565b9050808383612fc89190613fe8565b1115612ff9576000866000018190555085600101548383612fe99190613f07565b612ff39190613f5d565b50613055565b61271060016130089190613f8e565b8660000181905550600061271084846130219190613fe8565b61302b9190613f5d565b905080876001015461303d9190613fe8565b896130489190613f07565b9850808760010181905550505b505b60008711156130ee57603660009054906101000a900473ffffffffffffffffffffffffffffffffffffffff1673ffffffffffffffffffffffffffffffffffffffff166342966c68886040518263ffffffff1660e01b81526004016130bb9190613da7565b600060405180830381600087803b1580156130d557600080fd5b505af11580156130e9573d6000803e3d6000fd5b505050505b505050505080806130fe906140d1565b915050612da0565b505050505050505050565b600061311c826112c2565b90506000805b82518110156132775760006035600085848151811061316a577f4e487b7100000000000000000000000000000000000000000000000000000000600052603260045260246000fd5b60200260200101516020015173ffffffffffffffffffffffffffffffffffffffff1673ffffffffffffffffffffffffffffffffffffffff16815260200190815260200160002090508382815181106131eb577f4e487b7100000000000000000000000000000000000000000000000000000000600052603260045260246000fd5b60200260200101516000015181600101600082825461320a9190613f07565b9250508190555083828151811061324a577f4e487b7100000000000000000000000000000000000000000000000000000000600052603260045260246000fd5b602002602001015160000151836132619190613f07565b925050808061326f906140d1565b915050613122565b50603660009054906101000a900473ffffffffffffffffffffffffffffffffffffffff1673ffffffffffffffffffffffffffffffffffffffff166340c10f1930836040518363ffffffff1660e01b81526004016132d5929190613b8c565b600060405180830381600087803b1580156132ef57600080fd5b505af1158015613303573d6000803e3d6000fd5b50505050505050565b6000808273ffffffffffffffffffffffffffffffffffffffff163b119050919050565b60405180606001604052806000815260200160008152602001600081525090565b604051806040016040528060008152602001600073ffffffffffffffffffffffffffffffffffffffff1681525090565b6040518060c00160405280600073ffffffffffffffffffffffffffffffffffffffff168152602001600073ffffffffffffffffffffffffffffffffffffffff1681526020016000815260200160006003811115613406577f4e487b7100000000000000000000000000000000000000000000000000000000600052602160045260246000fd5b815260200160008152602001600081525090565b6040518060a00160405280600073ffffffffffffffffffffffffffffffffffffffff168152602001600073ffffffffffffffffffffffffffffffffffffffff16815260200160008152602001600060038111156134a0577f4e487b7100000000000000000000000000000000000000000000000000000000600052602160045260246000fd5b8152602001600081525090565b6000813590506134bc81614352565b92915050565b6000815190506134d181614369565b92915050565b6000813590506134e681614380565b92915050565b6000602082840312156134fe57600080fd5b600061350c848285016134ad565b91505092915050565b6000806040838503121561352857600080fd5b6000613536858286016134ad565b9250506020613547858286016134ad565b9150509250929050565b6000806040838503121561356457600080fd5b6000613572858286016134ad565b9250506020613583858286016134d7565b9150509250929050565b60006020828403121561359f57600080fd5b60006135ad848285016134c2565b91505092915050565b6000602082840312156135c857600080fd5b60006135d6848285016134d7565b91505092915050565b600080604083850312156135f257600080fd5b6000613600858286016134d7565b9250506020613611858286016134d7565b9150509250929050565b60008060006060848603121561363057600080fd5b600061363e868287016134d7565b935050602061364f868287016134d7565b9250506040613660868287016134ad565b9150509250925092565b60006136768383613961565b60408301905092915050565b600061368e8383613990565b60c08301905092915050565b60006136a68383613a73565b60408301905092915050565b6136bb8161401c565b82525050565b6136ca8161401c565b82525050565b60006136db82613e7b565b6136e58185613ec3565b93506136f083613e4b565b8060005b83811015613721578151613708888261366a565b975061371383613e9c565b9250506001810190506136f4565b5085935050505092915050565b600061373982613e86565b6137438185613ed4565b935061374e83613e5b565b8060005b8381101561377f5781516137668882613682565b975061377183613ea9565b925050600181019050613752565b5085935050505092915050565b600061379782613e91565b6137a18185613ee5565b93506137ac83613e6b565b8060005b838110156137dd5781516137c4888261369a565b97506137cf83613eb6565b9250506001810190506137b0565b5085935050505092915050565b6137f381614077565b82525050565b6138028161409b565b82525050565b613811816140bf565b82525050565b613820816140bf565b82525050565b6000613833600883613ef6565b915061383e826141a7565b602082019050919050565b6000613856600a83613ef6565b9150613861826141d0565b602082019050919050565b6000613879601183613ef6565b9150613884826141f9565b602082019050919050565b600061389c602e83613ef6565b91506138a782614222565b604082019050919050565b60006138bf600983613ef6565b91506138ca82614271565b602082019050919050565b60006138e2601183613ef6565b91506138ed8261429a565b602082019050919050565b6000613905601f83613ef6565b9150613910826142c3565b602082019050919050565b6000613928600983613ef6565b9150613933826142ec565b602082019050919050565b600061394b600d83613ef6565b915061395682614315565b602082019050919050565b6040820160008201516139776000850182613ae4565b50602082015161398a60208501826136b2565b50505050565b60c0820160008201516139a660008501826136b2565b5060208201516139b960208501826136b2565b5060408201516139cc6040850182613ae4565b5060608201516139df6060850182613808565b5060808201516139f26080850182613ae4565b5060a0820151613a0560a0850182613ae4565b50505050565b60a082016000820151613a2160008501826136b2565b506020820151613a3460208501826136b2565b506040820151613a476040850182613ae4565b506060820151613a5a6060850182613808565b506080820151613a6d6080850182613ae4565b50505050565b604082016000820151613a896000850182613ae4565b506020820151613a9c60208501826136b2565b50505050565b606082016000820151613ab86000850182613ae4565b506020820151613acb6020850182613ae4565b506040820151613ade6040850182613ae4565b50505050565b613aed8161406d565b82525050565b613afc8161406d565b82525050565b6000606082019050613b1760008301866136c1565b613b2460208301856136c1565b613b316040830184613af3565b949350505050565b600060a082019050613b4e60008301886136c1565b613b5b60208301876136c1565b613b686040830186613af3565b613b756060830185613817565b613b826080830184613af3565b9695505050505050565b6000604082019050613ba160008301856136c1565b613bae6020830184613af3565b9392505050565b60006020820190508181036000830152613bcf81846136d0565b905092915050565b60006020820190508181036000830152613bf1818461372e565b905092915050565b60006020820190508181036000830152613c13818461378c565b905092915050565b6000602082019050613c3060008301846137ea565b92915050565b6000602082019050613c4b60008301846137f9565b92915050565b60006020820190508181036000830152613c6a81613826565b9050919050565b60006020820190508181036000830152613c8a81613849565b9050919050565b60006020820190508181036000830152613caa8161386c565b9050919050565b60006020820190508181036000830152613cca8161388f565b9050919050565b60006020820190508181036000830152613cea816138b2565b9050919050565b60006020820190508181036000830152613d0a816138d5565b9050919050565b60006020820190508181036000830152613d2a816138f8565b9050919050565b60006020820190508181036000830152613d4a8161391b565b9050919050565b60006020820190508181036000830152613d6a8161393e565b9050919050565b600060a082019050613d866000830184613a0b565b92915050565b6000606082019050613da16000830184613aa2565b92915050565b6000602082019050613dbc6000830184613af3565b92915050565b6000604082019050613dd76000830185613af3565b613de460208301846136c1565b9392505050565b6000604082019050613e006000830185613af3565b613e0d6020830184613af3565b9392505050565b6000606082019050613e296000830186613af3565b613e366020830185613af3565b613e436040830184613af3565b949350505050565b6000819050602082019050919050565b6000819050602082019050919050565b6000819050602082019050919050565b600081519050919050565b600081519050919050565b600081519050919050565b6000602082019050919050565b6000602082019050919050565b6000602082019050919050565b600082825260208201905092915050565b600082825260208201905092915050565b600082825260208201905092915050565b600082825260208201905092915050565b6000613f128261406d565b9150613f1d8361406d565b9250827fffffffffffffffffffffffffffffffffffffffffffffffffffffffffffffffff03821115613f5257613f5161411a565b5b828201905092915050565b6000613f688261406d565b9150613f738361406d565b925082613f8357613f82614149565b5b828204905092915050565b6000613f998261406d565b9150613fa48361406d565b9250817fffffffffffffffffffffffffffffffffffffffffffffffffffffffffffffffff0483118215151615613fdd57613fdc61411a565b5b828202905092915050565b6000613ff38261406d565b9150613ffe8361406d565b9250828210156140115761401061411a565b5b828203905092915050565b60006140278261404d565b9050919050565b60008115159050919050565b60008190506140488261433e565b919050565b600073ffffffffffffffffffffffffffffffffffffffff82169050919050565b6000819050919050565b600061408282614089565b9050919050565b60006140948261404d565b9050919050565b60006140a6826140ad565b9050919050565b60006140b88261404d565b9050919050565b60006140ca8261403a565b9050919050565b60006140dc8261406d565b91507fffffffffffffffffffffffffffffffffffffffffffffffffffffffffffffffff82141561410f5761410e61411a565b5b600182019050919050565b7f4e487b7100000000000000000000000000000000000000000000000000000000600052601160045260246000fd5b7f4e487b7100000000000000000000000000000000000000000000000000000000600052601260045260246000fd5b7f4e487b7100000000000000000000000000000000000000000000000000000000600052602160045260246000fd5b7f746f6f206d756368000000000000000000000000000000000000000000000000600082015250565b7f6e6f742061637469766500000000000000000000000000000000000000000000600082015250565b7f6f6e6c792061756374696f6e686f757365000000000000000000000000000000600082015250565b7f496e697469616c697a61626c653a20636f6e747261637420697320616c72656160008201527f647920696e697469616c697a6564000000000000000000000000000000000000602082015250565b7f6d75737420776169740000000000000000000000000000000000000000000000600082015250565b7f6e6f7420656e6f75676820776569676874000000000000000000000000000000600082015250565b7f5265656e7472616e637947756172643a207265656e7472616e742063616c6c00600082015250565b7f6e6f74206f776e65720000000000000000000000000000000000000000000000600082015250565b7f77726f6e67207375676765737400000000000000000000000000000000000000600082015250565b6004811061434f5761434e614178565b5b50565b61435b8161401c565b811461436657600080fd5b50565b6143728161402e565b811461437d57600080fd5b50565b6143898161406d565b811461439457600080fd5b5056fea2646970667358221220d7ce0f4a271a7dfbc2a28a8d32da5479dc99c256f0f96005c4ecc075e511190364736f6c63430008040033",
  "linkReferences": {},
  "deployedLinkReferences": {}
}